:020000020000FC
:1000000009EA04BD02E005BD09EA0093B00002E080
:100010000093B1000FEF0DBF08E00EBF509851984C
:10002000589A599A00E600937C0007E800937A00FA
:10003000A0E0B0E01F9300917A00006400937A0082
:1000400010E000917A000074011709F0FACF909146
:1000500079001F91B92F0E943C000E9449000E9424
:100060003200E8CF31E02CE040E84A95F1F73A95CC
:10007000E1F72A95D1F7089500E0A01729F05398E9
:10008000239AB093B30004C02398539AB093B4005A
:10009000089500E0C01721F05598569AD7BD03C0C7
:0800A0005698559AD8BD089549
:00000001FF
