:020000020000FC
:0200000016C028
:10002C00BDC009EA04BD02E005BD09EA0093B000B9
:10003C0002E00093B1000FEF0DBF08E00EBF00E629
:10004C0000937C0006E800937A00529A8827772761
:10005C000AE0009381000FE00093890003EF009306
:10006C00880002E000936F00A0E0BFEFC0E0DFEF7C
:10007C0000E600937C0006E800937A0000917C0077
:10008C00016000937C0000917C000D7F00937C004C
:10009C0000917A00006400937A0010E000917A00DD
:1000AC0000740117D9F79091790006E4091728F02C
:1000BC0081FF03C08D7F72600AC07D7F08E79017B7
:1000CC0028F081FD03C08260726001C07D7F00E674
:1000DC0000937C0006E800937A0000917C000E7F70
:1000EC0000937C0000917C00026000937C000091E6
:1000FC007A00006400937A0010E000917A0000749A
:10010C000117D9F79091790006E4091728F082FFBE
:10011C0003C08B7F74600AC07B7F08E7901728F0C0
:10012C0082FD03C08460746001C07B7F00E6009395
:10013C007C0006E800937A0000917C000E7F00930F
:10014C007C0000917C000D7F00937C0000917A0074
:10015C00006400937A0010E000917A00007401179B
:10016C00D9F7909179000FE7091718F461E0901B0B
:10017C0005C060E0901B0395091B902F990F81FD22
:10018C0001C001C05A9A81FF01C001C05A98B92F11
:10019C00D92F0E94E3000E94F0006ACF43950BF028
:1001AC0001C05395189531E02CE040E84A95F1F7E1
:1001BC003A95E1F72A95D1F7089500E0A01729F0B8
:1001CC005398239AB093B30004C02398539AB093D6
:1001DC00B400089500E0C01721F05598569AD7BD89
:0A01EC0003C05698559AD8BD089537
:00000001FF
