:020000020000FC
:1000000023EA24BD22E025BD23EA2093B00022E0AC
:100010002093B1002FEF2DBF28E02EBF50985198AC
:10002000589A599AA0E0B0E021E011E039B11323C9
:10003000121711F0B8EC01C0B0E00E942C000E9431
:100040003900F3CF31E02CE040E84A95F1F73A95DA
:10005000E1F72A95D1F7089500E0A01729F0539809
:10006000239AB093B30004C02398539AB093B4007A
:10007000089500E0C01721F05598569AD7BD03C0E7
:080080005698559AD8BD089569
:00000001FF
