:020000020000FC
:1000000009EA04BD02E005BD09EA0093B00002E080
:100010000093B1000FEF0DBF08E00EBF509851984C
:10002000589A599A00E600937C0005E800937A00FC
:10003000529A0BB11F9314E001271F910BB90E9434
:100040002200F7CF31E02CE040E84A95F1F73A95ED
:10005000E1F72A95D1F7089500E0A01729F0539809
:10006000239AB093B30004C02398539AB093B4007A
:10007000089500E0C01721F05598569AD7BD03C0E7
:080080005698559AD8BD089569
:00000001FF
