:020000020000FC
:020000004AC0F4
:10002C004EC1FFFFFFFFFFFFFFFFFFFFFFFFFFFDC5
:10003C00FAF7F4F1EEECE9E6E3E0DDDBD8D5D2CF6C
:10004C00CCCAC7C4C1BEBBB9B6B3B0ADAAA8A5A231
:10005C009F9C999794918E8B888683807D7A7775F7
:10006C00726F6C696664615E5B585553504D4A47BC
:10007C0044423F3C393633312E2B282522201D1A81
:10008C001714110F0C0906030000332722276624CE
:10009C00552488247724AA27BB27CC27DD2709EAF7
:1000AC0004BD02E005BD09EA0093B00002E0009334
:1000BC00B1000FEF0DBF08E00EBF00E600937C000F
:1000CC0006E800937A00529A882777274427552709
:1000DC000AE10093890000E10093880002E000939C
:1000EC006F0009E00093810078945A9800E6009321
:1000FC007C0006E800937A0000917C00016000937C
:10010C007C0000917C000D7F00937C0000917A00B4
:10011C00006400937A0000917A0000740030D9F7E3
:10012C0090917900063428F081FF03C08D7F7260B6
:10013C0009C07D7F983728F081FD03C08260726012
:10014C0001C07D7F00E600937C0006E800937A00F6
:10015C0000917C000E7F00937C0000917C000D7F51
:10016C0000937C0000917A00006400937A00009167
:10017C007A0000740030D9F7909179000FE70917D5
:10018C0018F461E0901B05C060E0901B0395091BFF
:10019C00902F990F71FD01C006C0242F352F251902
:1001AC003609520E631E022FF0E0EEE2E00F00E083
:1001BC00F01FC895901551F0901540F05A9A092FE0
:1001CC000019900F0BF001C09FEF00C0B92FA62FA4
:1001DC0000E600937C0006E800937A0000917C0016
:1001EC000E7F00937C0000917C00026000937C00E9
:1001FC0000917A00006400937A0000917A000074F8
:10020C000030D9F790917900063428F082FF03C0B2
:10021C008B7F746009C07B7F983728F082FD03C008
:10022C008460746001C07B7F00E600937C0006E86C
:10023C0000937A0000917C000E7F00937C0000916B
:10024C007C000D7F00937C0000917A000064009389
:10025C007A0000917A0000740030D9F790917900FF
:10026C000FE7091718F461E0901B05C060E0901BC4
:10027C000395091B902F990F72FD01C006C0242F06
:10028C00352F27193809720E831E022FF0E0EEE28B
:10029C00E00F00E0F01FC895901551F0901540F05C
:1002AC005A9A092F0019900F0BF001C09FEF00C054
:1002BC00D92FC62F0E9474010E94800116CF43953E
:1002CC000BF001C05395189531E02CE040E84A95AD
:1002DC00F1F73A95E1F72A95D1F70895A03029F076
:1002EC005398239AB093B30004C02398539AB093B5
:1002FC00B4000895C03021F05598569AD7BD03C06C
:08030C005698559AD8BD0895DA
:00000001FF
