:020000020000FC
:0200000016C028
:10002C005AC009EA04BD02E005BD09EA0093B0001C
:10003C0002E00093B1000FEF0DBF08E00EBF00E629
:10004C0000937C0005E800937A00529A0AE0009332
:10005C0081000FE00093890003EF0093880002E019
:10006C0000936F00A0E0BFEFC0E0DFEF00917C00D9
:10007C00016000937C0000917C000D7F00937C005C
:10008C0000917A00006400937A00909179000CE35F
:10009C00901708F005C081FF03C08D7F72600BC004
:1000AC007D7F0CED091708F005C081FD03C082604F
:1000BC00726001C07D7F71FD01C00CC05A9A0E9414
:1000CC0076005A980E9476005A9A0E9476005A98A6
:1000DC000E947600CBCF43950BF001C05395189539
:1000EC0031E02CE040E84A95F1F73A95E1F72A9592
:1000FC00D1F7089500E0A01729F05398239AB093F4
:10010C00B30004C02398539AB093B400089500E050
:10011C00C01721F05598569AD7BD03C05698559ADA
:04012C00D8BD08959D
:00000001FF
