:020000020000FC
:0200000016C028
:10002C0048C009EA04BD02E005BD09EA0093B0002E
:10003C0002E00093B1000FEF0DBF08E00EBF509827
:10004C005198589A599A00E600937C0005E8009361
:10005C007A00529A0AE0009381000FE00093890025
:10006C0003EF0093880002E000936F007894A0E007
:10007C00BFEFC0E0DFEF00917A00006400937A00DC
:10008C00909179000FE7091720F461E0901B5A9AC0
:10009C0006C060E0901B0395091B902F5A98990F8E
:1000AC00A62FC62FB92FD92F0E946E000E947B005D
:1000BC00E2CF43950BF001C05395189531E02CE03D
:1000CC0040E84A95F1F73A95E1F72A95D1F708956A
:1000DC0000E0A01729F05398239AB093B30004C002
:1000EC002398539AB093B400089500E0C01721F000
:1000FC005598569AD7BD03C05698559AD8BD0895B1
:00000001FF
